:100000000C9434000C9451000C9451000C94510049
:100010000C9451000C9451000C9451000C9451001C
:100020000C9451000C9451000C9451000C9451000C
:100030000C9451000C9451000C9451000C945100FC
:100040000C9451000C9451000C948B000C945100B2
:100050000C9451000C9451000C9451000C945100DC
:100060000C9451000C94510011241FBECFEFD8E026
:10007000DEBFCDBF11E0A0E0B1E0EAE4F1E002C0F4
:1000800005900D92A031B107D9F721E0A0E1B1E0D0
:1000900001C01D92A131B207E1F70E9483000C94C8
:1000A000A3000C9400008AB18E7F8AB98AB1826065
:1000B0008AB9E0ECF0E01082808182608083E1EC1C
:1000C000F0E01082808188698083E2ECF0E01082A9
:1000D0008081866080838FEC90E09093C500809350
:1000E000C4000895AC0120E007C09091C00095FFC6
:1000F000FCCF3093C6002F5FFA01E20FF11D308173
:100100003111F3CF08950E945300789480E091E07C
:100110000E947200FFCF1F920F920FB60F92112410
:100120008F938091C600809310018091C00085FF5D
:10013000FCCF809110018093C6008F910F900FBE6D
:0A0140000F901F901895F894FFCF60
:10014A00484F4C41204D554E444F205844210A00F7
:00000001FF
